{
  "contractName": "hblMarket",
  "abi": [
    {
      "constant": true,
      "inputs": [],
      "name": "name",
      "outputs": [
        {
          "internalType": "string",
          "name": "",
          "type": "string"
        }
      ],
      "payable": false,
      "stateMutability": "view",
      "type": "function"
    },
    {
      "constant": true,
      "inputs": [],
      "name": "lastContractAddress",
      "outputs": [
        {
          "internalType": "address",
          "name": "",
          "type": "address"
        }
      ],
      "payable": false,
      "stateMutability": "view",
      "type": "function"
    },
    {
      "inputs": [],
      "payable": false,
      "stateMutability": "nonpayable",
      "type": "constructor"
    },
    {
      "anonymous": false,
      "inputs": [
        {
          "indexed": false,
          "internalType": "address",
          "name": "contractAddress",
          "type": "address"
        }
      ],
      "name": "logNewPurchaseContract",
      "type": "event"
    },
    {
      "anonymous": false,
      "inputs": [
        {
          "indexed": false,
          "internalType": "address",
          "name": "sender",
          "type": "address"
        },
        {
          "indexed": false,
          "internalType": "bytes32",
          "name": "key",
          "type": "bytes32"
        }
      ],
      "name": "logRemovePurchaseContract",
      "type": "event"
    },
    {
      "constant": false,
      "inputs": [
        {
          "internalType": "bytes32",
          "name": "key",
          "type": "bytes32"
        },
        {
          "internalType": "string",
          "name": "title",
          "type": "string"
        },
        {
          "internalType": "string",
          "name": "ipfsHash",
          "type": "string"
        }
      ],
      "name": "createPurchaseContract",
      "outputs": [
        {
          "internalType": "bool",
          "name": "createResult",
          "type": "bool"
        }
      ],
      "payable": true,
      "stateMutability": "payable",
      "type": "function"
    },
    {
      "constant": true,
      "inputs": [],
      "name": "getContractCount",
      "outputs": [
        {
          "internalType": "uint256",
          "name": "contractCount",
          "type": "uint256"
        }
      ],
      "payable": false,
      "stateMutability": "view",
      "type": "function"
    },
    {
      "constant": true,
      "inputs": [
        {
          "internalType": "uint256",
          "name": "index",
          "type": "uint256"
        }
      ],
      "name": "getContractKeyAtIndex",
      "outputs": [
        {
          "internalType": "bytes32",
          "name": "key",
          "type": "bytes32"
        }
      ],
      "payable": false,
      "stateMutability": "view",
      "type": "function"
    },
    {
      "constant": true,
      "inputs": [
        {
          "internalType": "bytes32",
          "name": "key",
          "type": "bytes32"
        }
      ],
      "name": "getContractByKey",
      "outputs": [
        {
          "internalType": "address",
          "name": "contractAddress",
          "type": "address"
        }
      ],
      "payable": false,
      "stateMutability": "view",
      "type": "function"
    },
    {
      "constant": false,
      "inputs": [
        {
          "internalType": "bytes32",
          "name": "key",
          "type": "bytes32"
        }
      ],
      "name": "removeContractByKey",
      "outputs": [],
      "payable": false,
      "stateMutability": "nonpayable",
      "type": "function"
    }
  ],
  "bytecode": "0x608060405234801561001057600080fd5b506040805180820190915260188082527f68626c4d61726b657420536d61727420436f6e7472616374000000000000000060209092019182526100559160039161005b565b506100f6565b828054600181600116156101000203166002900490600052602060002090601f016020900481019282601f1061009c57805160ff19168380011785556100c9565b828001600101855582156100c9579182015b828111156100c95782518255916020019190600101906100ae565b506100d59291506100d9565b5090565b6100f391905b808211156100d557600081556001016100df565b90565b61145b806101056000396000f3fe6080604052600436106200007a5760003560e01c80637f66e22411620000555780637f66e22414620002945780638ea5ad3014620002d45780639399869d1462000304578063d2030313146200031c576200007a565b806306fdde03146200007f578063089c4739146200010f578063327097381462000260575b600080fd5b3480156200008c57600080fd5b50620000976200034a565b6040805160208082528351818301528351919283929083019185019080838360005b83811015620000d3578181015183820152602001620000b9565b50505050905090810190601f168015620001015780820380516001836020036101000a031916815260200191505b509250505060405180910390f35b6200024c600480360360608110156200012757600080fd5b813591908101906040810160208201356401000000008111156200014a57600080fd5b8201836020820111156200015d57600080fd5b803590602001918460018302840111640100000000831117156200018057600080fd5b91908080601f0160208091040260200160405190810160405280939291908181526020018383808284376000920191909152509295949360208101935035915050640100000000811115620001d457600080fd5b820183602082011115620001e757600080fd5b803590602001918460018302840111640100000000831117156200020a57600080fd5b91908080601f016020809104026020016040519081016040528093929190818152602001838380828437600092019190915250929550620003dc945050505050565b604080519115158252519081900360200190f35b3480156200026d57600080fd5b5062000278620005a6565b604080516001600160a01b039092168252519081900360200190f35b348015620002a157600080fd5b50620002c260048036036020811015620002ba57600080fd5b5035620005b5565b60408051918252519081900360200190f35b348015620002e157600080fd5b506200030260048036036020811015620002fa57600080fd5b5035620005cf565b005b3480156200031157600080fd5b50620002c26200063d565b3480156200032957600080fd5b5062000278600480360360208110156200034257600080fd5b503562000651565b6003805460408051602060026001851615610100026000190190941693909304601f81018490048402820184019092528181529291830182828015620003d45780601f10620003a857610100808354040283529160200191620003d4565b820191906000526020600020905b815481529060010190602001808311620003b657829003601f168201915b505050505081565b6000620003f0818563ffffffff620006be16565b6000600260008681526020019081526020016000209050600034338787876040516200041c90620008c3565b80856001600160a01b03166001600160a01b031681526020018481526020018060200180602001838103835285818151815260200191508051906020019080838360005b838110156200047a57818101518382015260200162000460565b50505050905090810190601f168015620004a85780820380516001836020036101000a031916815260200191505b50838103825284518152845160209182019186019080838360005b83811015620004dd578181015183820152602001620004c3565b50505050905090810190601f1680156200050b5780820380516001836020036101000a031916815260200191505b5096505050505050506040518091039082f08015801562000530573d6000803e3d6000fd5b50600480546001600160a01b038084166001600160a01b031992831617808455875490921691811691909117865590546040805191909216815290519193507fc3be7a1b989e500f285c648a999ec3fea8d6fa8227a7f1dffea8562f4718e913925081900360200190a150600195945050505050565b6004546001600160a01b031681565b6000620005c9818363ffffffff6200077016565b92915050565b620005e260008263ffffffff6200079516565b60008181526002602090815260409182902080546001600160a01b0319169055815133815290810183905281517f985b28e1f5b8e2b438830a00484027654324d82941abff0786eae4651274acc1929181900390910190a150565b60006200064b600062000871565b90505b90565b600062000665818363ffffffff6200087816565b620006a25760405162461bcd60e51b8152600401808060200182810382526026815260200180620013cc6026913960400191505060405180910390fd5b506000908152600260205260409020546001600160a01b031690565b80620006fc5760405162461bcd60e51b81526004018080602001828103825260288152602001806200136f6028913960400191505060405180910390fd5b62000708828262000878565b15620007465760405162461bcd60e51b8152600401808060200182810382526035815260200180620013f26035913960400191505060405180910390fd5b60018281018054918201815560009081526020808220830184905592815292909152604090912055565b60008260010182815481106200078257fe5b9060005260206000200154905092915050565b620007a1828262000878565b620007de5760405162461bcd60e51b8152600401808060200182810382526035815260200180620013976035913960400191505060405180910390fd5b6000826001016001620007f18562000871565b0381548110620007fd57fe5b60009182526020808320909101548483529085905260408083205482845292208290556001850180549193508391839081106200083657fe5b6000918252602080832090910192909255848152908590526040812055600184018054906200086a906000198301620008d1565b5050505050565b6001015490565b60018201546000906200088e57506000620005c9565b6000828152602084905260409020546001840180548492908110620008af57fe5b906000526020600020015414905092915050565b610a50806200091f83390190565b815481835581811115620008f857600083815260209020620008f8918101908301620008fd565b505050565b6200064e91905b808211156200091a576000815560010162000904565b509056fe6080604052604051610a50380380610a508339818101604052608081101561002657600080fd5b8151602083015160408085018051915193959294830192918464010000000082111561005157600080fd5b90830190602082018581111561006657600080fd5b825164010000000081118282018810171561008057600080fd5b82525081516020918201929091019080838360005b838110156100ad578181015183820152602001610095565b50505050905090810190601f1680156100da5780820380516001836020036101000a031916815260200191505b50604052602001805160405193929190846401000000008211156100fd57600080fd5b90830190602082018581111561011257600080fd5b825164010000000081118282018810171561012c57600080fd5b82525081516020918201929091019080838360005b83811015610159578181015183820152602001610141565b50505050905090810190601f1680156101865780820380516001836020036101000a031916815260200191505b506040525050600080546001600160a01b0319166001600160a01b03871617905550600383905580516101c09060059060208401906102a7565b5081516101d49060049060208501906102a7565b50600234046002558260001a60f81b7fff000000000000000000000000000000000000000000000000000000000000001661020e57600080fd5b600082511161021c57600080fd5b60006002541161022b57600080fd5b346002546002021461029e57604080517f08c379a000000000000000000000000000000000000000000000000000000000815260206004820152601560248201527f56616c75652068617320746f206265206576656e2e0000000000000000000000604482015290519081900360640190fd5b50505050610342565b828054600181600116156101000203166002900490600052602060002090601f016020900481019282601f106102e857805160ff1916838001178555610315565b82800160010185558215610315579182015b828111156103155782518255916020019190600101906102fa565b50610321929150610325565b5090565b61033f91905b80821115610321576000815560010161032b565b90565b6106ff806103516000396000f3fe60806040526004361061009c5760003560e01c8063722713f711610064578063722713f7146101af578063a035b1fe146101c4578063a0811c45146101d9578063c19d93fb146101e1578063c623674f1461021a578063caa1acca1461022f5761009c565b806308551a53146100a15780633440543a146100d25780633943380c146100e95780634a79d50c146101105780637150d8ae1461019a575b600080fd5b3480156100ad57600080fd5b506100b6610244565b604080516001600160a01b039092168252519081900360200190f35b3480156100de57600080fd5b506100e7610253565b005b3480156100f557600080fd5b506100fe6103c1565b60408051918252519081900360200190f35b34801561011c57600080fd5b506101256103c7565b6040805160208082528351818301528351919283929083019185019080838360005b8381101561015f578181015183820152602001610147565b50505050905090810190601f16801561018c5780820380516001836020036101000a031916815260200191505b509250505060405180910390f35b3480156101a657600080fd5b506100b6610455565b3480156101bb57600080fd5b506100fe610464565b3480156101d057600080fd5b506100fe610469565b6100e761046f565b3480156101ed57600080fd5b506101f6610563565b6040518082600281111561020657fe5b60ff16815260200191505060405180910390f35b34801561022657600080fd5b5061012561056c565b34801561023b57600080fd5b506100e76105c7565b6000546001600160a01b031681565b6001546001600160a01b031633146102b2576040805162461bcd60e51b815260206004820152601960248201527f4f6e6c792062757965722063616e2063616c6c20746869732e00000000000000604482015290519081900360640190fd5b60018060065460ff1660028111156102c657fe5b14610309576040805162461bcd60e51b815260206004820152600e60248201526d24b73b30b634b21039ba30ba329760911b604482015290519081900360640190fd5b6040517fe89152acd703c9d8c7d28829d443260b411454d45394e7995815140c8cbcbcf790600090a16006805460ff1916600290811790915560015490546040516001600160a01b03909216916108fc82150291906000818181858888f1935050505015801561037d573d6000803e3d6000fd5b506000546001600160a01b03166108fc610395610464565b6040518115909202916000818181858888f193505050501580156103bd573d6000803e3d6000fd5b5050565b60035481565b6004805460408051602060026001851615610100026000190190941693909304601f8101849004840282018401909252818152929183018282801561044d5780601f106104225761010080835404028352916020019161044d565b820191906000526020600020905b81548152906001019060200180831161043057829003601f168201915b505050505081565b6001546001600160a01b031681565b303190565b60025481565b60008060065460ff16600281111561048357fe5b146104c6576040805162461bcd60e51b815260206004820152600e60248201526d24b73b30b634b21039ba30ba329760911b604482015290519081900360640190fd5b600254600202341480610515576040805162461bcd60e51b8152602060048201526012602482015271436f6e646974696f6e2069732066616c736560701b604482015290519081900360640190fd5b6040517fd5d55c8a68912e9a110618df8d5e2e83b8d83211c57a8ddd1203df92885dc88190600090a1600180546001600160a01b031916331781556006805460ff1916828002179055505050565b60065460ff1681565b6005805460408051602060026001851615610100026000190190941693909304601f8101849004840282018401909252818152929183018282801561044d5780601f106104225761010080835404028352916020019161044d565b6000546001600160a01b03163314610626576040805162461bcd60e51b815260206004820152601a60248201527f4f6e6c792073656c6c65722063616e2063616c6c20746869732e000000000000604482015290519081900360640190fd5b60008060065460ff16600281111561063a57fe5b1461067d576040805162461bcd60e51b815260206004820152600e60248201526d24b73b30b634b21039ba30ba329760911b604482015290519081900360640190fd5b6040517f72c874aeff0b183a56e2b79c71b46e1aed4dee5e09862134b8821ba2fddbf8bf90600090a16006805460ff191660021790556000546001600160a01b03166108fc61039561046456fea265627a7a72315820ffb4a4052998a7bd78c9742742818e0b6c568c996c713d5c58233f6d25c3d8bd64736f6c634300050b0032556e6f7264657265644b65795365742831303029202d204b65792063616e6e6f7420626520307830556e6f7264657265644b65795365742831303229202d204b657920646f6573206e6f7420657869737420696e20746865207365742e43616e277420676574206120776964676574207468617420646f65736e27742065786973742e556e6f7264657265644b65795365742831303129202d204b657920616c72656164792065786973747320696e20746865207365742ea265627a7a72315820f61b51e123c01ece23f60a1e84858fc8bebf3758b368f41279e318ef996c8b7e64736f6c634300050b0032",
  "source": "pragma solidity 0.5.11;\n\nimport \"./HitchensUnorderedKeySet.sol\";\n\ncontract hblMarket {\n    using HitchensUnorderedKeySetLib for HitchensUnorderedKeySetLib.Set;\n    HitchensUnorderedKeySetLib.Set widgetSet;\n\n    struct WidgetStruct {\n        address contractAddress;\n    }\n\n    mapping(bytes32 => WidgetStruct) widgets;\n    string public name;\n    address public lastContractAddress;\n\n    constructor() public {\n        name = \"hblMarket Smart Contract\";\n    }\n\n    event logNewPurchaseContract(address contractAddress);\n    event logRemovePurchaseContract(address sender, bytes32 key);\n\n    function createPurchaseContract(\n        bytes32 key,\n        string memory title,\n        string memory ipfsHash\n    ) public payable returns (bool createResult) {\n        widgetSet.insert(key); // Note that this will fail automatically if the key already exists.\n        WidgetStruct storage w = widgets[key];\n\n        SafeRemotePurchase c =\n            (new SafeRemotePurchase).value(msg.value)(\n                msg.sender,\n                key,\n                title,\n                ipfsHash\n            );\n        lastContractAddress = address(c);\n        w.contractAddress = lastContractAddress;\n\n        emit logNewPurchaseContract(lastContractAddress);\n\n        return true;\n    }\n\n    function getContractCount() public view returns (uint256 contractCount) {\n        return widgetSet.count();\n    }\n\n    function getContractKeyAtIndex(uint256 index)\n        public\n        view\n        returns (bytes32 key)\n    {\n        return widgetSet.keyAtIndex(index);\n    }\n\n    function getContractByKey(bytes32 key)\n        public\n        view\n        returns (address contractAddress)\n    {\n        require(\n            widgetSet.exists(key),\n            \"Can't get a widget that doesn't exist.\"\n        );\n        WidgetStruct storage w = widgets[key];\n        return (w.contractAddress);\n    }\n\n    function removeContractByKey(bytes32 key) public {\n        // Note that this will fail automatically if the key doesn't exist\n        widgetSet.remove(key);\n        delete widgets[key];\n        emit logRemovePurchaseContract(msg.sender, key);\n    }\n}\n\ncontract SafeRemotePurchase {\n    address payable public seller;\n    address payable public buyer;\n    uint256 public price;\n    bytes32 public key; //unique string identifier\n    string public title;\n    string public ipfsHash;\n\n    enum State {Created, Locked, Inactive}\n    State public state;\n\n    // Contract created by the seller\n    // Ensure that `msg.value` is an even number.\n    // Division will truncate if it is an odd number.\n    // Check via multiplication that it wasn't an odd number.\n    constructor(\n        address payable _contractSeller,\n        bytes32 _key,\n        string memory _title,\n        string memory _ipfxHash\n    ) public payable {\n        seller = _contractSeller;\n        key = _key;\n        ipfsHash = _ipfxHash;\n        title = _title;\n        price = msg.value / 2;\n\n        //to verify that it does not represent an empty string.\n        require(_key[0] != 0);\n\n        require(bytes(_title).length > 0);\n        // Require a valid price\n        require(price > 0);\n        require((price * 2) == msg.value, \"Value has to be even.\");\n    }\n\n    modifier condition(bool _condition) {\n        require(_condition, \"Condition is false\");\n        _;\n    }\n\n    modifier onlyBuyer() {\n        require(msg.sender == buyer, \"Only buyer can call this.\");\n        _;\n    }\n\n    modifier onlySeller() {\n        require(msg.sender == seller, \"Only seller can call this.\");\n        _;\n    }\n\n    modifier inState(State _state) {\n        require(state == _state, \"Invalid state.\");\n        _;\n    }\n\n    event Aborted();\n    event PurchaseConfirmed();\n    event ItemReceived();\n\n    // Confirm the purchase as buyer.\n    // Transaction has to include `2 * value` ether.\n    // The ether will be locked until confirmReceived\n    // is called.\n    function buyerConfirmPurchase()\n        public\n        payable\n        inState(State.Created)\n        condition(msg.value == (price * 2))\n    {\n        emit PurchaseConfirmed();\n        buyer = msg.sender;\n        state = State.Locked;\n    }\n\n    // Confirm that you (the buyer) received the item.\n    // This will release the locked ether.\n    function buyerConfirmReceived() public onlyBuyer inState(State.Locked) {\n        emit ItemReceived();\n        state = State.Inactive;\n\n        buyer.transfer(price);\n        seller.transfer(balanceOf());\n    }\n\n    // The seller has changed his mind and does not want to sell the item\n    // Abort the purchase and reclaim the ether.\n    // Can only be called by the seller if the contract is Created\n    function abortBySeller() public onlySeller inState(State.Created) {\n        emit Aborted();\n        state = State.Inactive;\n\n        seller.transfer(balanceOf());\n    }\n\n    //get balance of the contract\n    function balanceOf() public view returns (uint256) {\n        return address(this).balance;\n    }\n}\n",
  "sourcePath": "/home/aman/Desktop/Ethereum-Escrow/contracts/hblMarket.sol",
  "compiler": {
    "name": "solc",
    "version": "0.5.11+commit.c082d0b4.Emscripten.clang"
  },
  "schemaVersion": "3.3.1",
  "updatedAt": "2021-01-08T09:41:37.328Z",
  "networkType": "ethereum",
  "devdoc": {
    "methods": {}
  },
  "userdoc": {
    "methods": {}
  }
}