{
  "contractName": "Widget",
  "abi": [
    {
      "anonymous": false,
      "inputs": [
        {
          "indexed": false,
          "internalType": "address",
          "name": "sender",
          "type": "address"
        },
        {
          "indexed": false,
          "internalType": "bytes32",
          "name": "key",
          "type": "bytes32"
        },
        {
          "indexed": false,
          "internalType": "string",
          "name": "name",
          "type": "string"
        },
        {
          "indexed": false,
          "internalType": "bool",
          "name": "delux",
          "type": "bool"
        },
        {
          "indexed": false,
          "internalType": "uint256",
          "name": "price",
          "type": "uint256"
        }
      ],
      "name": "LogNewWidget",
      "type": "event"
    },
    {
      "anonymous": false,
      "inputs": [
        {
          "indexed": false,
          "internalType": "address",
          "name": "sender",
          "type": "address"
        },
        {
          "indexed": false,
          "internalType": "bytes32",
          "name": "key",
          "type": "bytes32"
        },
        {
          "indexed": false,
          "internalType": "string",
          "name": "name",
          "type": "string"
        },
        {
          "indexed": false,
          "internalType": "bool",
          "name": "delux",
          "type": "bool"
        },
        {
          "indexed": false,
          "internalType": "uint256",
          "name": "price",
          "type": "uint256"
        }
      ],
      "name": "LogUpdateWidget",
      "type": "event"
    },
    {
      "anonymous": false,
      "inputs": [
        {
          "indexed": false,
          "internalType": "address",
          "name": "sender",
          "type": "address"
        },
        {
          "indexed": false,
          "internalType": "bytes32",
          "name": "key",
          "type": "bytes32"
        }
      ],
      "name": "LogRemWidget",
      "type": "event"
    },
    {
      "constant": false,
      "inputs": [
        {
          "internalType": "bytes32",
          "name": "key",
          "type": "bytes32"
        },
        {
          "internalType": "string",
          "name": "name",
          "type": "string"
        },
        {
          "internalType": "bool",
          "name": "delux",
          "type": "bool"
        },
        {
          "internalType": "uint256",
          "name": "price",
          "type": "uint256"
        }
      ],
      "name": "newWidget",
      "outputs": [],
      "payable": false,
      "stateMutability": "nonpayable",
      "type": "function"
    },
    {
      "constant": false,
      "inputs": [
        {
          "internalType": "bytes32",
          "name": "key",
          "type": "bytes32"
        },
        {
          "internalType": "string",
          "name": "name",
          "type": "string"
        },
        {
          "internalType": "bool",
          "name": "delux",
          "type": "bool"
        },
        {
          "internalType": "uint256",
          "name": "price",
          "type": "uint256"
        }
      ],
      "name": "updateWidget",
      "outputs": [],
      "payable": false,
      "stateMutability": "nonpayable",
      "type": "function"
    },
    {
      "constant": false,
      "inputs": [
        {
          "internalType": "bytes32",
          "name": "key",
          "type": "bytes32"
        }
      ],
      "name": "remWidget",
      "outputs": [],
      "payable": false,
      "stateMutability": "nonpayable",
      "type": "function"
    },
    {
      "constant": true,
      "inputs": [
        {
          "internalType": "bytes32",
          "name": "key",
          "type": "bytes32"
        }
      ],
      "name": "getWidget",
      "outputs": [
        {
          "internalType": "string",
          "name": "name",
          "type": "string"
        },
        {
          "internalType": "bool",
          "name": "delux",
          "type": "bool"
        },
        {
          "internalType": "uint256",
          "name": "price",
          "type": "uint256"
        }
      ],
      "payable": false,
      "stateMutability": "view",
      "type": "function"
    },
    {
      "constant": true,
      "inputs": [],
      "name": "getWidgetCount",
      "outputs": [
        {
          "internalType": "uint256",
          "name": "count",
          "type": "uint256"
        }
      ],
      "payable": false,
      "stateMutability": "view",
      "type": "function"
    },
    {
      "constant": true,
      "inputs": [
        {
          "internalType": "uint256",
          "name": "index",
          "type": "uint256"
        }
      ],
      "name": "getWidgetAtIndex",
      "outputs": [
        {
          "internalType": "bytes32",
          "name": "key",
          "type": "bytes32"
        }
      ],
      "payable": false,
      "stateMutability": "view",
      "type": "function"
    }
  ],
  "bytecode": "0x608060405234801561001057600080fd5b50610ab3806100206000396000f3fe608060405234801561001057600080fd5b50600436106100625760003560e01c80630d4547771461006757806325dbd37914610081578063b1c56bab1461009e578063e0d18500146100bd578063e0f95efc14610164578063e8eedec514610218575b600080fd5b61006f6102cc565b60408051918252519081900360200190f35b61006f6004803603602081101561009757600080fd5b50356102de565b6100bb600480360360208110156100b457600080fd5b50356102f6565b005b6100da600480360360208110156100d357600080fd5b5035610373565b604051808060200184151515158152602001838152602001828103825285818151815260200191508051906020019080838360005b8381101561012757818101518382015260200161010f565b50505050905090810190601f1680156101545780820380516001836020036101000a031916815260200191505b5094505050505060405180910390f35b6100bb6004803603608081101561017a57600080fd5b8135919081019060408101602082013564010000000081111561019c57600080fd5b8201836020820111156101ae57600080fd5b803590602001918460018302840111640100000000831117156101d057600080fd5b91908080601f0160208091040260200160405190810160405280939291908181526020018383808284376000920191909152509295505050508035151591506020013561047d565b6100bb6004803603608081101561022e57600080fd5b8135919081019060408101602082013564010000000081111561025057600080fd5b82018360208201111561026257600080fd5b8035906020019184600183028401116401000000008311171561028457600080fd5b91908080601f016020809104026020016040519081016040528093929190818152602001838380828437600092019190915250929550505050803515159150602001356105d2565b60006102d860006106a4565b90505b90565b60006102f0818363ffffffff6106ab16565b92915050565b61030760008263ffffffff6106cf16565b6000818152600260205260408120906103208282610895565b5060018101805460ff191690556000600290910155604080513381526020810183905281517f1961ea19d9342bc2b0d56ed1aa94287bf147a0fcbded8b9002463ab51b07ff12929181900390910190a150565b6060600080610388818563ffffffff6107a116565b6103c35760405162461bcd60e51b81526004018080602001828103825260268152602001806109fb6026913960400191505060405180910390fd5b60008481526002602081815260409283902060018082015482850154835487516101009482161594909402600019011695909504601f81018590048502830185019096528582529194859460ff909316938591908301828280156104685780601f1061043d57610100808354040283529160200191610468565b820191906000526020600020905b81548152906001019060200180831161044b57829003601f168201915b50505050509250935093509350509193909250565b61048e60008563ffffffff6107a116565b6104c95760405162461bcd60e51b8152600401808060200182810382526029815260200180610a566029913960400191505060405180910390fd5b6000848152600260209081526040909120845190916104ec9183918701906108dc565b5060018101805460ff191684151590811790915560028201839055604080513380825260208083018a905260608301949094526080820186905260a092820183815288519383019390935287517fccd7da8e38139725c28c93c0a7ad1c909c1b4acd80af2d4d6eff8369788ee4869491938a938a938a938a939160c08401919087019080838360005b8381101561058d578181015183820152602001610575565b50505050905090810190601f1680156105ba5780820380516001836020036101000a031916815260200191505b50965050505050505060405180910390a15050505050565b6105e360008563ffffffff6107e916565b6000848152600260209081526040909120845190916106069183918701906108dc565b5060018101805460ff191684151590811790915560028201839055604080513380825260208083018a905260608301949094526080820186905260a092820183815288519383019390935287517f758b0ff1a5a34423dfa3f0d5f8721a82d69abeebd27a3997318ff465211af0a79491938a938a938a938a939160c0840191908701908083836000831561058d578181015183820152602001610575565b6001015490565b60008260010182815481106106bc57fe5b9060005260206000200154905092915050565b6106d982826107a1565b6107145760405162461bcd60e51b81526004018080602001828103825260358152602001806109c66035913960400191505060405180910390fd5b6000826001016001610725856106a4565b038154811061073057fe5b600091825260208083209091015484835290859052604080832054828452922082905560018501805491935083918390811061076857fe5b60009182526020808320909101929092558481529085905260408120556001840180549061079a90600019830161095a565b5050505050565b60018201546000906107b5575060006102f0565b60008281526020849052604090205460018401805484929081106107d557fe5b906000526020600020015414905092915050565b806108255760405162461bcd60e51b815260040180806020018281038252602881526020018061099e6028913960400191505060405180910390fd5b61082f82826107a1565b1561086b5760405162461bcd60e51b8152600401808060200182810382526035815260200180610a216035913960400191505060405180910390fd5b60018281018054918201815560009081526020808220830184905592815292909152604090912055565b50805460018160011615610100020316600290046000825580601f106108bb57506108d9565b601f0160209004906000526020600020908101906108d99190610983565b50565b828054600181600116156101000203166002900490600052602060002090601f016020900481019282601f1061091d57805160ff191683800117855561094a565b8280016001018555821561094a579182015b8281111561094a57825182559160200191906001019061092f565b50610956929150610983565b5090565b81548183558181111561097e5760008381526020902061097e918101908301610983565b505050565b6102db91905b80821115610956576000815560010161098956fe556e6f7264657265644b65795365742831303029202d204b65792063616e6e6f7420626520307830556e6f7264657265644b65795365742831303229202d204b657920646f6573206e6f7420657869737420696e20746865207365742e43616e277420676574206120776964676574207468617420646f65736e27742065786973742e556e6f7264657265644b65795365742831303129202d204b657920616c72656164792065786973747320696e20746865207365742e43616e277420757064617465206120776964676574207468617420646f65736e27742065786973742ea265627a7a72315820861b9de66fb0224c9ae232fb8e376155adde445075ecfab40aa12f8090847ef464736f6c634300050b0032",
  "source": "pragma solidity ^0.5.1;\n\nimport \"./HitchensUnorderedKeySet.sol\";\n\ncontract Widget {\n    using HitchensUnorderedKeySetLib for HitchensUnorderedKeySetLib.Set;\n    HitchensUnorderedKeySetLib.Set widgetSet;\n\n    struct WidgetStruct {\n        string name;\n        bool delux;\n        uint256 price;\n    }\n\n    mapping(bytes32 => WidgetStruct) widgets;\n\n    event LogNewWidget(\n        address sender,\n        bytes32 key,\n        string name,\n        bool delux,\n        uint256 price\n    );\n    event LogUpdateWidget(\n        address sender,\n        bytes32 key,\n        string name,\n        bool delux,\n        uint256 price\n    );\n    event LogRemWidget(address sender, bytes32 key);\n\n    function newWidget(\n        bytes32 key,\n        string memory name,\n        bool delux,\n        uint256 price\n    ) public {\n        widgetSet.insert(key); // Note that this will fail automatically if the key already exists.\n        WidgetStruct storage w = widgets[key];\n        w.name = name;\n        w.delux = delux;\n        w.price = price;\n        emit LogNewWidget(msg.sender, key, name, delux, price);\n    }\n\n    function updateWidget(\n        bytes32 key,\n        string memory name,\n        bool delux,\n        uint256 price\n    ) public {\n        require(\n            widgetSet.exists(key),\n            \"Can't update a widget that doesn't exist.\"\n        );\n        WidgetStruct storage w = widgets[key];\n        w.name = name;\n        w.delux = delux;\n        w.price = price;\n        emit LogUpdateWidget(msg.sender, key, name, delux, price);\n    }\n\n    function remWidget(bytes32 key) public {\n        widgetSet.remove(key); // Note that this will fail automatically if the key doesn't exist\n        delete widgets[key];\n        emit LogRemWidget(msg.sender, key);\n    }\n\n    function getWidget(bytes32 key)\n        public\n        view\n        returns (\n            string memory name,\n            bool delux,\n            uint256 price\n        )\n    {\n        require(\n            widgetSet.exists(key),\n            \"Can't get a widget that doesn't exist.\"\n        );\n        WidgetStruct storage w = widgets[key];\n        return (w.name, w.delux, w.price);\n    }\n\n    function getWidgetCount() public view returns (uint256 count) {\n        return widgetSet.count();\n    }\n\n    function getWidgetAtIndex(uint256 index) public view returns (bytes32 key) {\n        return widgetSet.keyAtIndex(index);\n    }\n}\n",
  "sourcePath": "/home/aman/Desktop/Ethereum-Escrow/contracts/exampleWidget.sol",
  "compiler": {
    "name": "solc",
    "version": "0.5.11+commit.c082d0b4.Emscripten.clang"
  },
  "schemaVersion": "3.3.1",
  "updatedAt": "2021-01-07T10:13:55.116Z",
  "devdoc": {
    "methods": {}
  },
  "userdoc": {
    "methods": {}
  }
}